{
  "_format": "hh-sol-artifact-1",
  "contractName": "NFT",
  "sourceName": "contracts/NFT.sol",
  "abi": [
    {
      "inputs": [
        {
          "internalType": "address",
          "name": "marketplaceAddress",
          "type": "address"
        }
      ],
      "stateMutability": "nonpayable",
      "type": "constructor"
    },
    {
      "anonymous": false,
      "inputs": [
        {
          "indexed": true,
          "internalType": "address",
          "name": "owner",
          "type": "address"
        },
        {
          "indexed": true,
          "internalType": "address",
          "name": "approved",
          "type": "address"
        },
        {
          "indexed": true,
          "internalType": "uint256",
          "name": "tokenId",
          "type": "uint256"
        }
      ],
      "name": "Approval",
      "type": "event"
    },
    {
      "anonymous": false,
      "inputs": [
        {
          "indexed": true,
          "internalType": "address",
          "name": "owner",
          "type": "address"
        },
        {
          "indexed": true,
          "internalType": "address",
          "name": "operator",
          "type": "address"
        },
        {
          "indexed": false,
          "internalType": "bool",
          "name": "approved",
          "type": "bool"
        }
      ],
      "name": "ApprovalForAll",
      "type": "event"
    },
    {
      "anonymous": false,
      "inputs": [
        {
          "indexed": true,
          "internalType": "address",
          "name": "from",
          "type": "address"
        },
        {
          "indexed": true,
          "internalType": "address",
          "name": "to",
          "type": "address"
        },
        {
          "indexed": true,
          "internalType": "uint256",
          "name": "tokenId",
          "type": "uint256"
        }
      ],
      "name": "Transfer",
      "type": "event"
    },
    {
      "inputs": [
        {
          "internalType": "address",
          "name": "to",
          "type": "address"
        },
        {
          "internalType": "uint256",
          "name": "tokenId",
          "type": "uint256"
        }
      ],
      "name": "approve",
      "outputs": [],
      "stateMutability": "nonpayable",
      "type": "function"
    },
    {
      "inputs": [
        {
          "internalType": "address",
          "name": "owner",
          "type": "address"
        }
      ],
      "name": "balanceOf",
      "outputs": [
        {
          "internalType": "uint256",
          "name": "",
          "type": "uint256"
        }
      ],
      "stateMutability": "view",
      "type": "function"
    },
    {
      "inputs": [
        {
          "internalType": "uint256",
          "name": "tokenId",
          "type": "uint256"
        }
      ],
      "name": "getApproved",
      "outputs": [
        {
          "internalType": "address",
          "name": "",
          "type": "address"
        }
      ],
      "stateMutability": "view",
      "type": "function"
    },
    {
      "inputs": [
        {
          "internalType": "address",
          "name": "owner",
          "type": "address"
        },
        {
          "internalType": "address",
          "name": "operator",
          "type": "address"
        }
      ],
      "name": "isApprovedForAll",
      "outputs": [
        {
          "internalType": "bool",
          "name": "",
          "type": "bool"
        }
      ],
      "stateMutability": "view",
      "type": "function"
    },
    {
      "inputs": [
        {
          "internalType": "string",
          "name": "tokenURI",
          "type": "string"
        }
      ],
      "name": "mintToken",
      "outputs": [
        {
          "internalType": "uint256",
          "name": "",
          "type": "uint256"
        }
      ],
      "stateMutability": "nonpayable",
      "type": "function"
    },
    {
      "inputs": [],
      "name": "name",
      "outputs": [
        {
          "internalType": "string",
          "name": "",
          "type": "string"
        }
      ],
      "stateMutability": "view",
      "type": "function"
    },
    {
      "inputs": [
        {
          "internalType": "uint256",
          "name": "tokenId",
          "type": "uint256"
        }
      ],
      "name": "ownerOf",
      "outputs": [
        {
          "internalType": "address",
          "name": "",
          "type": "address"
        }
      ],
      "stateMutability": "view",
      "type": "function"
    },
    {
      "inputs": [
        {
          "internalType": "address",
          "name": "from",
          "type": "address"
        },
        {
          "internalType": "address",
          "name": "to",
          "type": "address"
        },
        {
          "internalType": "uint256",
          "name": "tokenId",
          "type": "uint256"
        }
      ],
      "name": "safeTransferFrom",
      "outputs": [],
      "stateMutability": "nonpayable",
      "type": "function"
    },
    {
      "inputs": [
        {
          "internalType": "address",
          "name": "from",
          "type": "address"
        },
        {
          "internalType": "address",
          "name": "to",
          "type": "address"
        },
        {
          "internalType": "uint256",
          "name": "tokenId",
          "type": "uint256"
        },
        {
          "internalType": "bytes",
          "name": "_data",
          "type": "bytes"
        }
      ],
      "name": "safeTransferFrom",
      "outputs": [],
      "stateMutability": "nonpayable",
      "type": "function"
    },
    {
      "inputs": [
        {
          "internalType": "address",
          "name": "operator",
          "type": "address"
        },
        {
          "internalType": "bool",
          "name": "approved",
          "type": "bool"
        }
      ],
      "name": "setApprovalForAll",
      "outputs": [],
      "stateMutability": "nonpayable",
      "type": "function"
    },
    {
      "inputs": [
        {
          "internalType": "bytes4",
          "name": "interfaceId",
          "type": "bytes4"
        }
      ],
      "name": "supportsInterface",
      "outputs": [
        {
          "internalType": "bool",
          "name": "",
          "type": "bool"
        }
      ],
      "stateMutability": "view",
      "type": "function"
    },
    {
      "inputs": [],
      "name": "symbol",
      "outputs": [
        {
          "internalType": "string",
          "name": "",
          "type": "string"
        }
      ],
      "stateMutability": "view",
      "type": "function"
    },
    {
      "inputs": [
        {
          "internalType": "uint256",
          "name": "tokenId",
          "type": "uint256"
        }
      ],
      "name": "tokenURI",
      "outputs": [
        {
          "internalType": "string",
          "name": "",
          "type": "string"
        }
      ],
      "stateMutability": "view",
      "type": "function"
    },
    {
      "inputs": [
        {
          "internalType": "address",
          "name": "from",
          "type": "address"
        },
        {
          "internalType": "address",
          "name": "to",
          "type": "address"
        },
        {
          "internalType": "uint256",
          "name": "tokenId",
          "type": "uint256"
        }
      ],
      "name": "transferFrom",
      "outputs": [],
      "stateMutability": "nonpayable",
      "type": "function"
    }
  ],
  "bytecode": "0x60806040523480156200001157600080fd5b50604051620018e0380380620018e0833981016040819052620000349162000171565b604080518082018252601181527025b93cb83a21b934b9b4b9902a37b5b2b760791b60208083019182528351808501909452600684526543524953493560d01b9084015281519192916200008b91600091620000cb565b508051620000a1906001906020840190620000cb565b5050600880546001600160a01b0319166001600160a01b03939093169290921790915550620001e0565b828054620000d990620001a3565b90600052602060002090601f016020900481019282620000fd576000855562000148565b82601f106200011857805160ff191683800117855562000148565b8280016001018555821562000148579182015b82811115620001485782518255916020019190600101906200012b565b50620001569291506200015a565b5090565b5b808211156200015657600081556001016200015b565b6000602082840312156200018457600080fd5b81516001600160a01b03811681146200019c57600080fd5b9392505050565b600181811c90821680620001b857607f821691505b60208210811415620001da57634e487b7160e01b600052602260045260246000fd5b50919050565b6116f080620001f06000396000f3fe608060405234801561001057600080fd5b50600436106100ea5760003560e01c80636352211e1161008c578063a22cb46511610066578063a22cb465146101e1578063b88d4fde146101f4578063c87b56dd14610207578063e985e9c51461021a57600080fd5b80636352211e146101b357806370a08231146101c657806395d89b41146101d957600080fd5b8063095ea7b3116100c8578063095ea7b31461015757806323b872dd1461016c57806333eba49a1461017f57806342842e0e146101a057600080fd5b806301ffc9a7146100ef57806306fdde0314610117578063081812fc1461012c575b600080fd5b6101026100fd366004611386565b610256565b60405190151581526020015b60405180910390f35b61011f6102a8565b60405161010e91906114ba565b61013f61013a366004611409565b61033a565b6040516001600160a01b03909116815260200161010e565b61016a61016536600461135c565b6103c7565b005b61016a61017a366004611268565b6104dd565b61019261018d3660046113c0565b61050e565b60405190815260200161010e565b61016a6101ae366004611268565b610556565b61013f6101c1366004611409565b610571565b6101926101d436600461121a565b6105e8565b61011f61066f565b61016a6101ef366004611320565b61067e565b61016a6102023660046112a4565b61068d565b61011f610215366004611409565b6106c5565b610102610228366004611235565b6001600160a01b03918216600090815260056020908152604080832093909416825291909152205460ff1690565b60006001600160e01b031982166380ac58cd60e01b148061028757506001600160e01b03198216635b5e139f60e01b145b806102a257506301ffc9a760e01b6001600160e01b03198316145b92915050565b6060600080546102b7906115df565b80601f01602080910402602001604051908101604052809291908181526020018280546102e3906115df565b80156103305780601f1061030557610100808354040283529160200191610330565b820191906000526020600020905b81548152906001019060200180831161031357829003601f168201915b5050505050905090565b60006103458261083c565b6103ab5760405162461bcd60e51b815260206004820152602c60248201527f4552433732313a20617070726f76656420717565727920666f72206e6f6e657860448201526b34b9ba32b73a103a37b5b2b760a11b60648201526084015b60405180910390fd5b506000908152600460205260409020546001600160a01b031690565b60006103d282610571565b9050806001600160a01b0316836001600160a01b031614156104405760405162461bcd60e51b815260206004820152602160248201527f4552433732313a20617070726f76616c20746f2063757272656e74206f776e656044820152603960f91b60648201526084016103a2565b336001600160a01b038216148061045c575061045c8133610228565b6104ce5760405162461bcd60e51b815260206004820152603860248201527f4552433732313a20617070726f76652063616c6c6572206973206e6f74206f7760448201527f6e6572206e6f7220617070726f76656420666f7220616c6c000000000000000060648201526084016103a2565b6104d88383610859565b505050565b6104e733826108c7565b6105035760405162461bcd60e51b81526004016103a29061151f565b6104d88383836109b0565b600061051e600780546001019055565b600061052960075490565b90506105353382610b4c565b61053f8184610c7f565b6008546102a2906001600160a01b0316600161067e565b6104d88383836040518060200160405280600081525061068d565b6000818152600260205260408120546001600160a01b0316806102a25760405162461bcd60e51b815260206004820152602960248201527f4552433732313a206f776e657220717565727920666f72206e6f6e657869737460448201526832b73a103a37b5b2b760b91b60648201526084016103a2565b60006001600160a01b0382166106535760405162461bcd60e51b815260206004820152602a60248201527f4552433732313a2062616c616e636520717565727920666f7220746865207a65604482015269726f206164647265737360b01b60648201526084016103a2565b506001600160a01b031660009081526003602052604090205490565b6060600180546102b7906115df565b610689338383610d0a565b5050565b61069733836108c7565b6106b35760405162461bcd60e51b81526004016103a29061151f565b6106bf84848484610dd9565b50505050565b60606106d08261083c565b6107365760405162461bcd60e51b815260206004820152603160248201527f45524337323155524953746f726167653a2055524920717565727920666f72206044820152703737b732bc34b9ba32b73a103a37b5b2b760791b60648201526084016103a2565b6000828152600660205260408120805461074f906115df565b80601f016020809104026020016040519081016040528092919081815260200182805461077b906115df565b80156107c85780601f1061079d576101008083540402835291602001916107c8565b820191906000526020600020905b8154815290600101906020018083116107ab57829003601f168201915b5050505050905060006107e660408051602081019091526000815290565b90508051600014156107f9575092915050565b81511561082b57808260405160200161081392919061144e565b60405160208183030381529060405292505050919050565b61083484610e0c565b949350505050565b6000908152600260205260409020546001600160a01b0316151590565b600081815260046020526040902080546001600160a01b0319166001600160a01b038416908117909155819061088e82610571565b6001600160a01b03167f8c5be1e5ebec7d5bd14f71427d1e84f3dd0314c0f7b2291e5b200ac8c7c3b92560405160405180910390a45050565b60006108d28261083c565b6109335760405162461bcd60e51b815260206004820152602c60248201527f4552433732313a206f70657261746f7220717565727920666f72206e6f6e657860448201526b34b9ba32b73a103a37b5b2b760a11b60648201526084016103a2565b600061093e83610571565b9050806001600160a01b0316846001600160a01b0316148061098557506001600160a01b0380821660009081526005602090815260408083209388168352929052205460ff165b806108345750836001600160a01b031661099e8461033a565b6001600160a01b031614949350505050565b826001600160a01b03166109c382610571565b6001600160a01b031614610a275760405162461bcd60e51b815260206004820152602560248201527f4552433732313a207472616e736665722066726f6d20696e636f72726563742060448201526437bbb732b960d91b60648201526084016103a2565b6001600160a01b038216610a895760405162461bcd60e51b8152602060048201526024808201527f4552433732313a207472616e7366657220746f20746865207a65726f206164646044820152637265737360e01b60648201526084016103a2565b610a94600082610859565b6001600160a01b0383166000908152600360205260408120805460019290610abd90849061159c565b90915550506001600160a01b0382166000908152600360205260408120805460019290610aeb908490611570565b909155505060008181526002602052604080822080546001600160a01b0319166001600160a01b0386811691821790925591518493918716917fddf252ad1be2c89b69c2b068fc378daa952ba7f163c4a11628f55a4df523b3ef91a4505050565b6001600160a01b038216610ba25760405162461bcd60e51b815260206004820181905260248201527f4552433732313a206d696e7420746f20746865207a65726f206164647265737360448201526064016103a2565b610bab8161083c565b15610bf85760405162461bcd60e51b815260206004820152601c60248201527f4552433732313a20746f6b656e20616c7265616479206d696e7465640000000060448201526064016103a2565b6001600160a01b0382166000908152600360205260408120805460019290610c21908490611570565b909155505060008181526002602052604080822080546001600160a01b0319166001600160a01b03861690811790915590518392907fddf252ad1be2c89b69c2b068fc378daa952ba7f163c4a11628f55a4df523b3ef908290a45050565b610c888261083c565b610ceb5760405162461bcd60e51b815260206004820152602e60248201527f45524337323155524953746f726167653a2055524920736574206f66206e6f6e60448201526d32bc34b9ba32b73a103a37b5b2b760911b60648201526084016103a2565b600082815260066020908152604090912082516104d8928401906110ef565b816001600160a01b0316836001600160a01b03161415610d6c5760405162461bcd60e51b815260206004820152601960248201527f4552433732313a20617070726f766520746f2063616c6c65720000000000000060448201526064016103a2565b6001600160a01b03838116600081815260056020908152604080832094871680845294825291829020805460ff191686151590811790915591519182527f17307eab39ab6107e8899845ad3d59bd9653f200f220920489ca2b5937696c31910160405180910390a3505050565b610de48484846109b0565b610df084848484610ee4565b6106bf5760405162461bcd60e51b81526004016103a2906114cd565b6060610e178261083c565b610e7b5760405162461bcd60e51b815260206004820152602f60248201527f4552433732314d657461646174613a2055524920717565727920666f72206e6f60448201526e3732bc34b9ba32b73a103a37b5b2b760891b60648201526084016103a2565b6000610e9260408051602081019091526000815290565b90506000815111610eb25760405180602001604052806000815250610edd565b80610ebc84610ff1565b604051602001610ecd92919061144e565b6040516020818303038152906040525b9392505050565b60006001600160a01b0384163b15610fe657604051630a85bd0160e11b81526001600160a01b0385169063150b7a0290610f2890339089908890889060040161147d565b602060405180830381600087803b158015610f4257600080fd5b505af1925050508015610f72575060408051601f3d908101601f19168201909252610f6f918101906113a3565b60015b610fcc573d808015610fa0576040519150601f19603f3d011682016040523d82523d6000602084013e610fa5565b606091505b508051610fc45760405162461bcd60e51b81526004016103a2906114cd565b805181602001fd5b6001600160e01b031916630a85bd0160e11b149050610834565b506001949350505050565b6060816110155750506040805180820190915260018152600360fc1b602082015290565b8160005b811561103f57806110298161161a565b91506110389050600a83611588565b9150611019565b60008167ffffffffffffffff81111561105a5761105a61168b565b6040519080825280601f01601f191660200182016040528015611084576020820181803683370190505b5090505b84156108345761109960018361159c565b91506110a6600a86611635565b6110b1906030611570565b60f81b8183815181106110c6576110c6611675565b60200101906001600160f81b031916908160001a9053506110e8600a86611588565b9450611088565b8280546110fb906115df565b90600052602060002090601f01602090048101928261111d5760008555611163565b82601f1061113657805160ff1916838001178555611163565b82800160010185558215611163579182015b82811115611163578251825591602001919060010190611148565b5061116f929150611173565b5090565b5b8082111561116f5760008155600101611174565b600067ffffffffffffffff808411156111a3576111a361168b565b604051601f8501601f19908116603f011681019082821181831017156111cb576111cb61168b565b816040528093508581528686860111156111e457600080fd5b858560208301376000602087830101525050509392505050565b80356001600160a01b038116811461121557600080fd5b919050565b60006020828403121561122c57600080fd5b610edd826111fe565b6000806040838503121561124857600080fd5b611251836111fe565b915061125f602084016111fe565b90509250929050565b60008060006060848603121561127d57600080fd5b611286846111fe565b9250611294602085016111fe565b9150604084013590509250925092565b600080600080608085870312156112ba57600080fd5b6112c3856111fe565b93506112d1602086016111fe565b925060408501359150606085013567ffffffffffffffff8111156112f457600080fd5b8501601f8101871361130557600080fd5b61131487823560208401611188565b91505092959194509250565b6000806040838503121561133357600080fd5b61133c836111fe565b91506020830135801515811461135157600080fd5b809150509250929050565b6000806040838503121561136f57600080fd5b611378836111fe565b946020939093013593505050565b60006020828403121561139857600080fd5b8135610edd816116a1565b6000602082840312156113b557600080fd5b8151610edd816116a1565b6000602082840312156113d257600080fd5b813567ffffffffffffffff8111156113e957600080fd5b8201601f810184136113fa57600080fd5b61083484823560208401611188565b60006020828403121561141b57600080fd5b5035919050565b6000815180845261143a8160208601602086016115b3565b601f01601f19169290920160200192915050565b600083516114608184602088016115b3565b8351908301906114748183602088016115b3565b01949350505050565b6001600160a01b03858116825284166020820152604081018390526080606082018190526000906114b090830184611422565b9695505050505050565b602081526000610edd6020830184611422565b60208082526032908201527f4552433732313a207472616e7366657220746f206e6f6e20455243373231526560408201527131b2b4bb32b91034b6b83632b6b2b73a32b960711b606082015260800190565b60208082526031908201527f4552433732313a207472616e736665722063616c6c6572206973206e6f74206f6040820152701ddb995c881b9bdc88185c1c1c9bdd9959607a1b606082015260800190565b6000821982111561158357611583611649565b500190565b6000826115975761159761165f565b500490565b6000828210156115ae576115ae611649565b500390565b60005b838110156115ce5781810151838201526020016115b6565b838111156106bf5750506000910152565b600181811c908216806115f357607f821691505b6020821081141561161457634e487b7160e01b600052602260045260246000fd5b50919050565b600060001982141561162e5761162e611649565b5060010190565b6000826116445761164461165f565b500690565b634e487b7160e01b600052601160045260246000fd5b634e487b7160e01b600052601260045260246000fd5b634e487b7160e01b600052603260045260246000fd5b634e487b7160e01b600052604160045260246000fd5b6001600160e01b0319811681146116b757600080fd5b5056fea2646970667358221220048058dc21e3582202f7bb9075c610faec3d233305e4dc01353341d10ef263e464736f6c63430008060033",
  "linkReferences": {},
  "deployedLinkReferences": {}
}